:06000000DBEF22F012000C
:080008009EA402D03BEF17F0AB
:100010009EAA02D022EF1CF09EA804D09DA802D078
:06002000A6EF1CF0120027
:06003A000400E445000093
:100040004C05000002000000E24500004A050000E7
:1000500002000000954500004E0500000100000070
:0C006000D44500002C0500000E0000003C
:04006C00D9CFE6FF03
:10007000DACFE6FFE1CFD9FFE2CFDAFFE652E65270
:10008000E652E652E652F10EDBCFE6FFF20EDBCF90
:10009000E6FFF80EDBCFE6FFF90EDBCFE6FF6EECF6
:1000A0000AF0E552E552E552E552DE52F3CFDEFFAB
:1000B000F4CFDDFFDD52D950010FE96E000EDA20DA
:1000C000EA6EEE50ED1001E137D1010EDBCFE9FF12
:1000D000020EDBCFEAFF170EE926000EEA22030E1E
:1000E000EECFDBFF040EEDCFDBFFF80EDBCF12F01F
:1000F000F90EDBCF13F01206000E135A010EDBCF00
:10010000E9FF020EDBCFEAFF170EE926000EEA2216
:100110001250EE24106E1350EE20116E010EDBCF44
:10012000E9FF020EDBCFEAFF1D0EE926000EEA22F0
:1001300010C0EEFF11C0EDFFF80EDBCFE6FFF90EA9
:10014000DBCFE6FFEF0EDBCFE6FFF00EDBCFE6FF07
:10015000F50EDBCFE6FFFA0EDBCFE6FFFB0EDBCFC3
:10016000E6FF010EDBCFE6FF020EDBCFE6FFF0EC91
:1001700008F0106E090EE15C02E2E16AE552E16E00
:100180001050F60EDBCFE6FFF70EDBCFE6FFFC0EDE
:10019000DBCFE6FFFD0EDBCFE6FF030EDBCFE6FF96
:1001A000040EDBCFE6FFB9EC13F0126E060EE15C35
:1001B00002E2E16AE552E16E1250F3CF10F0F4CFA3
:1001C00011F0010EDBCFE9FF020EDBCFEAFF10C01A
:1001D000EEFF11C0EDFFD950F30FE96EFF0EDA20EC
:1001E000EA6EEE50ED100CE0F30EDBCFE9FFF40EFB
:1001F000DBCFEAFF010EDBCFEEFF020EDBCFEDFF20
:10020000F250E66EF29E05012F2B05012C512D11A7
:100210000CE1010EDBCF2CF5020EDBCF2DF5050135
:100220002F0502E1B7EC09F015D00501345112E1B8
:100230002CC5E9FF2DC5EAFF160EEB50106EF50E2A
:10024000DB50D880105406E3010EDBCF2CF5020EF4
:10025000DBCF2DF5010EDBCFE9FF020EDBCFEAFF8E
:10026000160EE926000EEA22EFCF10F005013251FA
:10027000D88010540CE2010EDBCFE9FF020EDBCF79
:10028000EAFF160EE926000EEA22EFCF32F505014D
:10029000392B010EDBCFE9FF020EDBCFEAFF160E92
:1002A000E926000EEA22EFCF10F005013351D88085
:1002B00010540CE2010EDBCFE9FF020EDBCFEAFFA8
:1002C000160EE926000EEA22EFCF33F5010EDBCF42
:1002D000E9FF020EDBCFEAFF020EE926000EEA225A
:1002E000E9CF10F0EACF11F010C0E6FF11C0E6FF31
:1002F000010EDBCFE9FF020EDBCFEAFF160EE92687
:10030000000EEA22EF50090DF3CF12F0F4CF13F0F4
:10031000E00E1226040E132212C0E6FF13C0E6FF01
:1003200011EC19F0E552E552E552E552010EDF6E8F
:10033000E552E7BEF28E01D0DF68DF0410E105016F
:1003400034510DE02CC5E9FF2DC5EAFF160EEB5028
:10035000106EF50EDB50105C02E261EC16F0DF501F
:1003600000D0106E050EE15C02E2E16AE552E16E3A
:100370001050E552E5CFDAFFE7CFD9FF1200D9CF11
:10038000E6FFDACFE6FFE1CFD9FFE2CFDAFFE652B0
:10039000E652F250E66EF29EFC0EDBCF10F0FD0E40
:1003A000DBCF11F005012C51101802E12D5111186D
:1003B00004E1FC0EDB6AFD0EDB6AD950FC0FE96E2E
:1003C000FF0EDA20EA6EEE50ED1005E12CC510F0BC
:1003D0002DC511F006D0FC0EDBCF10F0FD0EDBCFEB
:1003E00011F010C0DEFF11C0DDFFDECFE9FFDDCF71
:1003F000EAFF020EE926000EEA22E9CF10F0EACF6A
:1004000011F010C0E6FF11C0E6FF87EC1AF0E552CC
:10041000E552DECFE9FFDDCFEAFF0C0EE926000E44
:10042000EA22080EE926000EEA22EE50ED1014E052
:10043000DECFE9FFDDCFEAFF0C0EE926000EEA224F
:10044000E9CF10F0EACF11F010C0E6FF11C0E6FFCF
:1004500087EC1AF0E552E552DECFE9FFDDCFEAFF87
:10046000020EE926000EEA22E9CF10F0EACF11F0E1
:1004700010C0E6FF11C0E6FF230EE66E050EE66E25
:1004800011EC19F0E552E552E552E55205012E2B2B
:100490000501392BE552E7BEF28E050134510BE020
:1004A000D950FC0FE96EFF0EDA20EA6EEE50ED1027
:1004B00002E161EC16F0E552E552E552E5CFDAFFD4
:1004C000E7CFD9FF1200D9CFE6FFDACFE6FFE1CFC1
:1004D000D9FFE2CFDAFFE652E652E652E652030EC9
:1004E000DB6AAFD9FA0EDBCF12F0FB0EDBCF13F0D5
:1004F000FC0EDBCFE9FFFD0EDBCFEAFF1250EE244E
:10050000106E1350EE20116E10C0DEFFDD6EFC0E7B
:10051000DBCFE9FFFD0EDBCFEAFFEECF10F0EFCF30
:1005200011F005011050305D115031591DE2DECF40
:1005300010F0DDCF11F0FC0EDBCFE9FFFD0EDBCFBD
:10054000EAFFEECF12F0EFCF13F01250105C135011
:1005500011582BE2DECF14F0DDCF15F01450305DD2
:100560001550315922E21CD0DECF10F0DDCF11F052
:10057000FC0EDBCFE9FFFD0EDBCFEAFFEECF12F082
:10058000EFCF13F01250105C1350115809E3DECF77
:1005900014F0DDCF15F01450305D1550315905E2DF
:1005A000010EF36E030EF3CFDBFFFC0EDBCFE9FF92
:1005B000FD0EDBCFEAFFDECFEEFFDDCFEDFF030E5A
:1005C000DB5059E02CC5E9FF2DC5EAFF020EE926F4
:1005D000000EEA22E9CF10F0EACF11F0E9CFE6FFF2
:1005E000EACFE6FF87EC1AF0E552E5522CC5E9FFA9
:1005F0002DC5EAFF020EE926000EEA22DECFEEFF4D
:10060000DDCFEDFFDECF10F0DDCF11F00501305171
:10061000105C3151115815E22CC5E9FF2DC5EAFFD8
:10062000020EE926000EEA22E9CF10F0EACF11F01F
:10063000E9CFE6FFEACFE6FF18C5E6FF19C5E6FFFA
:1006400014D02CC5E9FF2DC5EAFF020EE926000EE5
:10065000EA22E9CF10F0EACF11F0E9CFE6FFEACFC6
:10066000E6FF16C5E6FF17C5E6FFA9EC19F0E5524F
:10067000E552E552E552E8D8E76E020EE7CFDBFF20
:10068000DB5002E161EC16F0040EE15C02E2E16A8B
:10069000E552E16EE552E5CFDAFFE7CFD9FF120070
:1006A000D9CFE6FFDACFE6FFE1CFD9FFE2CFDAFF1D
:1006B000E652E652E652020EDB6AD950FC0FE96EB2
:1006C000FF0EDA20EA6E000ED880EE54000EED54D4
:1006D0006BE2B7D8FC0EDB5005013025106EFD0E25
:1006E000DB503121000110C0DEFFDD6E2CC5E9FFBB
:1006F0002DC5EAFF020EE926000EEA22E9CF10F02E
:10070000EACF11F0E9CFE6FFEACFE6FF87EC1AF077
:10071000E552E5522CC5E9FF2DC5EAFF020EE92698
:10072000000EEA22DECFEEFFDDCFEDFFDECF10F0D0
:10073000DDCF11F005013051105C3151115815E237
:100740002CC5E9FF2DC5EAFF020EE926000EEA22BC
:10075000E9CF10F0EACF11F0E9CFE6FFEACFE6FFEC
:1007600018C5E6FF19C5E6FF14D02CC5E9FF2DC555
:10077000EAFF020EE926000EEA22E9CF10F0EACFE6
:1007800011F0E9CFE6FFEACFE6FF16C5E6FF17C591
:10079000E6FFA9EC19F0E552E552E552E55254D8CE
:1007A000E76E020EE7CFDBFF020EDB5002E161ECE9
:1007B00016F0E552E552E552E552E5CFDAFFE7CF14
:1007C000D9FF1200D9CFE6FFDACFE6FFE1CFD9FF9C
:1007D000E2CFDAFFE652000EE66EE66AE66EE66A01
:1007E000E66EE66AE66AE66EE66A690EE66EE66A56
:1007F000720EE66E450EE66EC00EE66E110EE66EE9
:1008000035DC106E0F0EE15C02E2E16AE552E16E4A
:100810001050DF6EDF0409E1F29E0501010E346F16
:10082000306B316BEFEC15F00009E552E552E5CF86
:10083000DAFFE7CFD9FF1200F29E0501346B60EFBB
:1008400016F00501352B1200D9CFE6FFDACFE6FF0F
:10085000E1CFD9FFE2CFDAFFE652E652E652E652A6
:10086000020EDB6AF250E66EF29E050135070501C5
:10087000355101E0C6D005012F51000801E3C1D078
:10088000030EDB6A05011A510DE01FC5E9FF20C503
:10089000EAFF060EE926000EEA22EECF10F0EFCFB7
:1008A00011F002D0106A116A10C0DEFF11C0DDFF26
:1008B0001050111001E185D0DECFE9FFDDCFEAFF56
:1008C0000C0EE926000EEA22E9CF10F0EACF11F073
:1008D00010C0E6FF11C0E6FF87EC1AF0E552E552C2
:1008E000DECFE9FFDDCFEAFF020EE926000EEA22A5
:1008F000E9CF10F0EACF11F010C0E6FF11C0E6FF1B
:1009000087EC1AF0E552E552DECFE9FFDDCFEAFFD2
:10091000160EE926000EEA22EFCF10F00501335142
:10092000D88010540AE2DECFE9FFDDCFEAFF160ED1
:10093000E926000EEA22EFCF33F5DECFE9FFDDCF67
:10094000EAFF020EE926000EEA22E9CF10F0EACF14
:1009500011F010C0E6FF11C0E6FFDECFE9FFDDCFEA
:10096000EAFF160EE926000EEA22EF50090DF3CF3A
:1009700012F0F4CF13F0E00E1226040E132212C070
:10098000E6FF13C0E6FF11EC19F0E552E552E5521F
:10099000E552DECFE9FFDDCFEAFF160EE926000EB5
:1009A000EA22EFCF10F02CC5E9FF2DC5EAFF160EA5
:1009B000EB50105C05E3010EF36E030EF3CFDBFF8B
:1009C00061D70501365100080DE2050136510008D6
:1009D00004E258D805013607F8D7010EF36E030E6E
:1009E000F3CFDBFF030EDB0403E00501370509E16C
:1009F000010EF36E020EF3CFDBFF0501376B61ECE6
:100A000016F0E552E7BEF28E020EDB5000D0106EFB
:100A1000040EE15C02E2E16AE552E16E1050E5523B
:100A2000E5CFDAFFE7CFD9FF1200D9CFE6FFDACF63
:100A3000E6FFE1CFD9FFE2CFDAFFE652E652F2500D
:100A4000E66EF29E30C5DEFF31C5DDFFE552E7BE42
:100A5000F28EDECF10F0DDCF11F010C0F3FF11C029
:100A6000F4FF00D0E552E552E552E5CFDAFFE7CFDB
:100A7000D9FF120030C5F3FF31C5F4FF12000501A4
:100A80002F511200D9CFE6FFDACFE6FFE1CFD9FF31
:100A9000E2CFDAFFE652E652E652E6520501355160
:100AA00001E0DFD0302B000E3123305131110DE148
:100AB00016C5DEFF17C5DDFF18C516F519C517F5F4
:100AC000DECF18F5DDCF19F5382B16C5E9FF17C5B0
:100AD000EAFFEF50000919E016C5E9FF17C5EAFF64
:100AE000030EE926000EEA22020EE926000EEA2293
:100AF000EE50EFCFEAFFE96E060EE926000EEA227D
:100B0000EECF10F0EFCF11F002D0106A116A020E92
:100B100010C0DBFF030E11C0DBFF1050111001E10C
:100B2000A1D0020EDBCFE9FF030EDBCFEAFF020EFE
:100B3000E926000EEA22EECF10F0EFCF11F005010A
:100B40001050305D1150315901E28CD0020EDBCFD4
:100B5000E9FF030EDBCFEAFF020EE926000EEA22D0
:100B6000E9CF10F0EACF11F0E9CFE6FFEACFE6FFD8
:100B700087EC1AF0E552E552020EDBCFE9FF030ED7
:100B8000DBCFEAFF0C0EE926000EEA22080EE9266A
:100B9000000EEA22EE50ED1016E0020EDBCFE9FF68
:100BA000030EDBCFEAFF0C0EE926000EEA22E9CFA6
:100BB00010F0EACF11F0E9CFE6FFEACFE6FF87ECCD
:100BC0001AF0E552E552020EDBCFE9FF030EDBCF50
:100BD000EAFF160EE926000EEA22EFCF10F005011B
:100BE0003351D88010540CE2020EDBCFE9FF030E24
:100BF000DBCFEAFF160EE926000EEA22EFCF33F52F
:100C0000020EDBCFE9FF030EDBCFEAFF020EE9267F
:100C1000000EEA22E9CF10F0EACF11F0E9CFE6FFAB
:100C2000EACFE6FF020EDBCFE9FF030EDBCFEAFFE0
:100C3000160EE926000EEA22EF50090DF3CF12F04E
:100C4000F4CF13F0E00E1226040E132212C0E6FFBA
:100C500013C0E6FF11EC19F0E552E552E552E552FA
:100C600034D7362B040EE15C02E2E16AE552E16E14
:100C7000E552E5CFDAFFE7CFD9FF1200D9CFE6FF83
:100C8000DACFE6FFE1CFD9FFE2CFDAFFE652E65254
:100C90000501355103E0010E376F7AD03351090D4C
:100CA000F3CFE9FFF4CFEAFFE00EE926040EEA22D3
:100CB000EF5002E13307F2D73351090DF3CF10F0B3
:100CC000F4CF11F0E00E1026040E112210C0DEFF4A
:100CD00011C0DDFFDECFE9FFDDCFEAFFEE52EE50BF
:100CE000EFCFEAFFE96E020EE926000EEA22EECF10
:100CF00010F0EFCF11F0DECFE9FFDDCFEAFFEE52CB
:100D000010C0EEFF11C0EDFFDECFE9FFDDCFEAFF3F
:100D1000EE52EECF10F0EFCF11F0DECFE9FFDDCFD6
:100D2000EAFF030EE926000EEA22EACF13F0E950AB
:100D300010181DE1135011181AE1DECFE9FFDDCFC5
:100D4000EAFFEE52EE50EFCFEAFFE96E020EE9261F
:100D5000000EEA22EECF10F0EFCF11F0DECFE9FF68
:100D6000DDCFEAFFEE5210C0EEFF11C0EDFFDECF87
:100D7000E9FFDDCFEAFFEE52EE50EFCFEAFFE96E7A
:100D8000060EE926000EEA22EECF2CF5EDCF2DF56A
:100D9000E552E552E552E5CFDAFFE7CFD9FF120081
:100DA000D9CFE6FFDACFE6FFE1CFD9FFE2CFDAFF16
:100DB000E652E6522CC5E9FF2DC5EAFF0C0EE926E6
:100DC000000EEA22E9CF10F0EACF11F0E9CFE6FFFA
:100DD000EACFE6FFFC0EDBCFE6FFFD0EDBCFE6FF42
:100DE000A9EC19F0E552E552E552E5522CC5E9FFB0
:100DF0002DC5EAFF020EE926000EEA22E9CF10F027
:100E0000EACF11F0E9CFE6FFEACFE6FF87EC1AF070
:100E1000E552E552FA0EDB50050130250001106E57
:100E2000FB0EDB50050131210001116E10C0DEFF09
:100E3000DD6E2CC5E9FF2DC5EAFF020EE926000E86
:100E4000EA22DECFEEFFDDCFEDFFDECF10F0DDCF0B
:100E500011F005013051105C3151115815E22CC5CB
:100E6000E9FF2DC5EAFF020EE926000EEA22E9CFCE
:100E700010F0EACF11F0E9CFE6FFEACFE6FF18C5A0
:100E8000E6FF19C5E6FF14D02CC5E9FF2DC5EAFF22
:100E9000020EE926000EEA22E9CF10F0EACF11F0A7
:100EA000E9CFE6FFEACFE6FF16C5E6FF17C5E6FF86
:100EB000A9EC19F0E552E552E552E552E552E5524A
:100EC000E552E5CFDAFFE7CFD9FF1200D9CFE6FF31
:100ED000DACFE6FFE1CFD9FFE2CFDAFFE652E65202
:100EE000E652FC0EDBCFE9FFFD0EDBCFEAFFEF5051
:100EF0001BE0FC0EDBCFE9FFFD0EDBCFEAFF030EAC
:100F0000E926000EEA22020EE926000EEA22EE5041
:100F1000EFCFEAFFE96E060EE926000EEA22EECFD9
:100F200010F0EFCF11F002D0106A116A10C0DEFF8E
:100F300011C0DDFFDECFE9FFDDCFEAFF0C0EE926B1
:100F4000000EEA22E9CF10F0EACF11F0E9CFE6FF78
:100F5000EACFE6FF87EC1AF0E552E552050135517C
:100F600054E1DECFE9FFDDCFEAFF020EE926000EF5
:100F7000EA22E9CF10F0EACF11F0E9CFE6FFEACF9D
:100F8000E6FF87EC1AF0E552E552DECFE9FFDDCF50
:100F9000EAFF160EE926000EEA22EFCF10F0050157
:100FA0003351D88010540AE2DECFE9FFDDCFEAFFEB
:100FB000160EE926000EEA22EFCF33F5DECFE9FF69
:100FC000DDCFEAFF020EE926000EEA22E9CF10F09B
:100FD000EACF11F0E9CFE6FFEACFE6FFDECFE9FF87
:100FE000DDCFEAFF160EE926000EEA22EF50090DCA
:100FF000F3CF12F0F4CF13F0E00E1226040E1322FA
:1010000012C0E6FF13C0E6FF14D0DECFE9FFDDCF4C
:10101000EAFF0C0EE926000EEA22E9CF10F0EACF33
:1010200011F0E9CFE6FFEACFE6FF1A0EE66E050EF5
:10103000E66E11EC19F0E552E552E552E552DECFCD
:10104000E9FFDDCFEAFF160EE926000EEA22EFCF18
:1010500010F02CC5E9FF2DC5EAFF160EEB50105C11
:1010600006E3010EF36E020EF3CFDBFF02D0020E99
:10107000DB6ADB50E552E552E552E552E5CFDAFF97
:10108000E7CFD9FF1200D9CFE6FFDACFE6FFE1CFF5
:10109000D9FFE2CFDAFFFC0EDBCFE9FFFD0EDBCF9D
:1010A000EAFF38C5EFFFFC0EDBCFE9FFFD0EDBCF1B
:1010B000EAFFEE5230C5EEFF31C5EDFFE552E5CF58
:1010C000DAFFE7CFD9FF1200D9CFE6FFDACFE6FF8C
:1010D000E1CFD9FFE2CFDAFFE652F250E66EF29EA0
:1010E000FC0EDBCFE9FFFD0EDBCFEAFFEF50050181
:1010F000385D14E0FC0EDBCFE9FFFD0EDBCFEAFF2D
:10110000EE52EECF10F0EFCF11F005011050305D30
:101110001150315903E3010EDF6E42D0FC0EDBCFDC
:10112000E9FFFD0EDBCFEAFFEE520501EE50305D28
:10113000106EEE503159116EFA0EDBCFE9FFFB0E47
:10114000DBCFEAFFEECF12F0EFCF13F01250105CBE
:101150001350115823E2FC0EDBCFE9FFFD0EDBCF6D
:10116000EAFFEE520501EE50305D106EEE5031593F
:10117000116EFA0EDBCFE9FFFB0EDBCFEAFF10505A
:10118000EE5E1150ED5AFC0EDBCFE6FFFD0EDBCF1D
:10119000E6FF79DFE552E552DF6A02D0010EDF6E2D
:1011A000E552E7BEF28EDF5000D0E552E552E5CFC2
:1011B000DAFFE7CFD9FF12000501010E376F1200E9
:1011C000D9CFE6FFDACFE6FFE1CFD9FFE2CFDAFFF2
:1011D0001FD90401E0510108FBE261EC16F0F8D7D9
:1011E000D9CFE6FFDACFE6FFE1CFD9FFE2CFDAFFD2
:1011F000040EE66EE66AFA0EDBCFE6FFFB0EDBCFEF
:10120000E6FFFC0EDBCFE9FFFD0EDBCFEAFF190E98
:10121000E926000EEA22E9CF10F0EACF11F0E9CF7B
:10122000E6FFEACFE6FF19EC21F0126E060EE15C54
:1012300002E2E16AE552E16E1250FC0EDBCFE9FFFB
:10124000FD0EDBCFEAFF190EE926000EEA22030E9F
:10125000E926000EEA22EF6A040EF36EF90EDBCFE8
:10126000F4FFF350F45C05E3030EF36EF90EF3CFD5
:10127000DBFFFC0EDBCFE9FFFD0EDBCFEAFF160E36
:10128000E926000EEA22F90EDBCFEFFFFC0EDBCFE2
:10129000E9FFFD0EDBCFEAFF020EE926000EEA228F
:1012A000E9CF10F0EACF11F0E9CFE6FFEACFE6FF91
:1012B000F9EC18F0E552E552FC0EDBCFE9FFFD0E2C
:1012C000DBCFEAFF0C0EE926000EEA22E9CF10F090
:1012D000EACF11F0E9CFE6FFEACFE6FFF9EC18F02C
:1012E000E552E552FC0EDBCFE9FFFD0EDBCFEAFF56
:1012F000020EE926000EEA22060EE926000EEA2278
:10130000FC0EDBCFEEFFFD0EDBCFEDFFF90EDB5069
:10131000106E116A040ED8801056000E1156FC0E85
:10132000DBCFE9FFFD0EDBCFEAFF0C0EE926000E56
:10133000EA2210C0EEFF11C0EDFFFC0EDBCFE9FF8B
:10134000FD0EDBCFEAFF0C0EE926000EEA22060EA8
:10135000E926000EEA22FC0EDBCFEEFFFD0EDBCF0E
:10136000EDFFE552E5CFDAFFE7CFD9FF1200D9CF85
:10137000E6FFDACFE6FFE1CFD9FFE2CFDAFFE652B0
:10138000DF6A040EDF5C14E2DF50090DF3CF10F0CA
:10139000F4CF11F0E00E1026040E112210C0E6FF6B
:1013A00011C0E6FF7FEC18F0E552E552DF2AE9D7DD
:1013B000040EE66E050EE66E7FEC18F0E552E5527F
:1013C0000D0EE66E050EE66E7FEC18F0E552E55266
:1013D0001A0EE66E050EE66E7FEC18F0E552E55249
:1013E000230EE66E050EE66E7FEC18F0E552E55230
:1013F0000501040E166F050E176F0D0E186F050E02
:10140000196FE552E552E5CFDAFFE7CFD9FF1200B9
:10141000D9CFE6FFDACFE6FFE1CFD9FFE2CFDAFF9F
:10142000E652E652E65205012E5100084EE221EC4A
:1014300004F00501235102E0000E01D0010EDF6E21
:1014400024EC04F0DF5041E1F250E66EF29E05011B
:1014500023510DE028C5E9FF29C5EAFF060EE9265C
:10146000000EEA22EECF10F0EFCF11F002D0106A9A
:10147000116A010E10C0DBFF020E11C0DBFF010E6E
:10148000DBCFE9FF020EDBCFEAFF020EE926000EFA
:10149000EA22E9CF10F0EACF11F010C0E6FF11C048
:1014A000E6FF87EC1AF0E552E55205012F0705012A
:1014B0002E07E552E7BEF28E010EDBCFE6FF020EED
:1014C000DBCFE6FF95D8E552E552E552E552E5520D
:1014D000E552E5CFDAFFE7CFD9FF1200D9CFE6FF1B
:1014E000DACFE6FFE1CFD9FFE2CFDAFFE652E652EC
:1014F0001F0EE66EE66A47EC21F0E552E552F3CFA7
:10150000DEFFF4CFDDFFD9CFE9FFDACFEAFFEE50FF
:10151000ED105EE0D950FA0FE96EFF0EDA20EA6EA8
:10152000EE50ED100FE1FC0EDBCFE6FFFD0EDBCF42
:10153000E6FF47EC21F0E552E552F3CF10F0F4CF8F
:1015400011F006D0FA0EDBCF10F0FB0EDBCF11F05E
:10155000DECFE9FFDDCFEAFF170EE926000EEA2213
:1015600010C0EEFF11C0EDFFDECFE9FFDDCFEAFFD7
:10157000170EE926000EEA22EE50ED100BE1DECF49
:10158000E6FFDDCFE6FF9DEC21F0E552E552DE6A95
:10159000DD6A1ED0FC0EDBCFE6FFFD0EDBCFE6FFE3
:1015A000A50EE66EDECFE9FFDDCFEAFF170EE926D6
:1015B000000EEA22EECFE6FFEFCFE6FFFFEC20F0D1
:1015C000106E050EE15C02E2E16AE552E16E105038
:1015D000DECF10F0DDCF11F010C0F3FF11C0F4FF2B
:1015E000E552E552E552E5CFDAFFE7CFD9FF120029
:1015F000D9CFE6FFDACFE6FFE1CFD9FFE2CFDAFFBE
:10160000FC0EDBCFE9FFFD0EDBCFEAFF170EE9266C
:10161000000EEA22EECFE6FFEFCFE6FF9DEC21F0D1
:10162000E552E552FC0EDBCFE6FFFD0EDBCFE6FF19
:101630009DEC21F0E552E552E552E5CFDAFFE7CF28
:04164000D9FF1200BC
:0C164400D9CFE6FFDACFE6FFE1CFD9FFF7
:10165000E2CFDAFFE652E652E652E652FD0EDB50EA
:10166000000801E302D11F0EE66EE66A47EC21F0A6
:10167000E552E552F3CFDEFFF4CFDDFFD9CFE9FF2E
:10168000DACFEAFFEE50ED1001E1EFD0FC0EDBCF38
:10169000E6FFFD0EDB50E552E702F350106E116AD3
:1016A000010E1026000E1122020E10C0DBFF030EE9
:1016B00011C0DBFF020EDBCFE6FF030EDBCFE6FF40
:1016C00047EC21F0E552E552F3CF10F0F4CF11F0E2
:1016D000DECFE9FFDDCFEAFFF3CFEEFF11C0EDFF74
:1016E000DECFE9FFDDCFEAFFEE50ED1001E1B5D02E
:1016F000FC0EDBCFE6FFFD0EDB50E552E702F350B8
:10170000136ADECFE9FFDDCFEAFFF350EE24106E5F
:101710001350EE20116EDECFE9FFDDCFEAFF020E9F
:10172000E926000EEA2210C0EEFF11C0EDFFDECF69
:10173000E9FFDDCFEAFF1A0EE926000EEA22EF6A82
:10174000DECFE9FFDDCFEAFFEECF10F0EFCF11F0F3
:10175000DECFE9FFDDCFEAFF040EE926000EEA2224
:1017600010C0EEFF11C0EDFFFC0EDBCFE6FFFD0E5B
:10177000DB04E552E702F350126E136ADECFE9FF95
:10178000DDCFEAFFF350EE24106E1350EE20116E01
:10179000DECFE9FFDDCFEAFF060EE926000EEA22E2
:1017A00010C0EEFF11C0EDFFDECFE9FFDDCFEAFF95
:1017B0001B0EE926000EEA22FD0EDBCFEFFFDECF87
:1017C000E9FFDDCFEAFF1C0EE926000EEA22FC0E3F
:1017D000DBCFEFFFDECFE9FFDDCFEAFF1D0EE9260D
:1017E000000EEA22EF68DECFE9FFDDCFEAFF1E0E32
:1017F000E926000EEA22EF68DECFE9FFDDCFEAFF3F
:10180000080EE926000EEA22E9CF10F0EACF11F027
:10181000E9CFE6FFEACFE6FF7FEC18F0E552E552AC
:10182000DECFE9FFDDCFEAFF110EE926000EEA2246
:10183000E9CF10F0EACF11F0E9CFE6FFEACFE6FFFB
:101840007FEC18F0E552E552DECF10F0DDCF11F05D
:1018500010C0F3FF11C0F4FF0AD0DECFE6FFDDCFEA
:10186000E6FF9DEC21F0E552E552F36AF46A040EBE
:10187000E15C02E2E16AE552E16EE552E5CFDAFFB2
:10188000E7CFD9FF1200D9CFE6FFDACFE6FFE1CFED
:10189000D9FFE2CFDAFFE652E652E652E652DF6ABD
:1018A000F250E66EF29EFC0EDBCFE9FFFD0EDBCFC1
:1018B000EAFF1A0EE926000EEA22EFCF10F0FC0E26
:1018C000DBCFE9FFFD0EDBCFEAFF1B0EE926000EA2
:1018D000EA22EF50105C45E2F70EDBCFE6FFFA0E8E
:1018E000DBCFE6FFFB0EDBCFE6FFFC0EDBCFE6FF38
:1018F000FD0EDBCFE6FF7EEC10F0106E050EE15C16
:1019000002E2E16AE552E16E1050FC0EDBCFE9FF26
:10191000FD0EDBCFEAFF110EE926000EEA22EF50A2
:101920001AE0FC0EDBCFE9FFFD0EDBCFEAFF110E64
:10193000E926000EEA22E9CF10F0EACF11F010C03C
:10194000E6FF11C0E6FF66EC07F0E552E55201083C
:1019500002E161EC16F0E552E7BEF28E010EC4D052
:101960001DD0D950F80FE96EFF0EDA20EA6EEE5066
:10197000ED1006E1E552E7BEF28E000EB5D00ED0B6
:10198000DF500CE1D950010FE66E000EDA20E66E52
:1019900043EC08F0E552E552010EDF6EE552E7BE7A
:1019A000F28E21EC04F0F250E66EF29EFC0EDBCFDC
:1019B000E9FFFD0EDBCFEAFF1D0EE926000EEA224D
:1019C000EF50FF080BE1FC0EDBCFE9FFFD0EDBCF94
:1019D000EAFF1D0EE926000EEA22EF6AFC0EDBCFBD
:1019E000E9FFFD0EDBCFEAFF1E0EE926000EEA221C
:1019F000EF50FF080BE1FC0EDBCFE9FFFD0EDBCF64
:101A0000EAFF1E0EE926000EEA22EF6AE552E7BE63
:101A1000F28ED950F80FE66EFF0EDA20E66ED9503E
:101A2000010FE66E000EDA20E66E64EC08F0E55277
:101A3000E552E552E552000948E1FC0EDBCFE6FF36
:101A4000FD0EDBCFE6FF56EC13F0E552E552000940
:101A50002FE0F80EDBCFE6FFF90EDBCFE6FFFC0E42
:101A6000DBCFE9FFFD0EDBCFEAFF080EE926000E13
:101A7000EA22E9CF10F0EACF11F010C0E6FF11C062
:101A8000E6FFD0EC06F0E552E552E552E552FC0ED9
:101A9000DBCFE6FFFD0EDBCFE6FF47EC12F0E552B1
:101AA000E55224EC04F0000902E161EC16F00CD0E0
:101AB000FC0EDBCFE6FFFD0EDBCFE6FF47EC12F0BE
:101AC000E552E55224EC04F00ED0FC0EDBCFE6FF2D
:101AD000FD0EDBCFE6FF47EC12F0E552E55224ECB9
:101AE00004F0000E01D0DCD6106E040EE15C02E2C0
:101AF000E16AE552E16E1050E552E5CFDAFFE7CF3B
:101B0000D9FF1200D9CFE6FFDACFE6FFE1CFD9FF48
:101B1000E2CFDAFFE652E652010EDB6AFC0EDBCFC3
:101B2000E9FFFD0EDBCFEAFF1A0EE926000EEA22DE
:101B3000EFCF10F0FC0EDBCFE9FFFD0EDBCFEAFFAD
:101B40001B0EE926000EEA22EF50105C60E2F70E51
:101B5000DBCFE6FFFA0EDBCFE6FFFB0EDBCFE6FFC7
:101B6000FC0EDBCFE6FFFD0EDBCFE6FFC7DA106E23
:101B7000050EE15C02E2E16AE552E16E1050FC0EF6
:101B8000DBCFE9FFFD0EDBCFEAFF1E0EE926000EDC
:101B9000EA22EF50FF082DE1FC0EDBCFE9FFFD0E3E
:101BA000DBCFEAFF110EE926000EEA22EF502CE00F
:101BB000FC0EDBCFE9FFFD0EDBCFEAFF110EE926BD
:101BC000000EEA22E9CF10F0EACF11F0E9CFE6FFEC
:101BD000EACFE6FF66EC07F0E552E552000914E0B3
:101BE000F80EDBCFE9FFF90EDBCFEAFF010EEF6E57
:101BF0000BD0FC0EDBCFE9FFFD0EDBCFEAFF1E0EA4
:101C0000E926000EEA22EF2A010EDF6E01D0DF6A1C
:101C1000DF50E552E552E552E5CFDAFFE7CFD9FFD5
:101C20001200D9CFE6FFDACFE6FFE1CFD9FFE2CF4E
:101C3000DAFF060EE12402E3E168E652E16EDF6AB4
:101C4000F250E66EF29EFC0EDBCFE9FFFD0EDBCF1D
:101C5000EAFF1A0EE926000EEA22EF50000801E31F
:101C600092D0FC0EDBCFE9FFFD0EDBCFEAFF060EC4
:101C7000E926000EEA22040EEECFDBFF050EEDCFC3
:101C8000DBFFFA0EDBCFE6FFFB0EDBCFE6FFFC0E41
:101C9000DBCFE6FFFD0EDBCFE6FF62DBE552E55270
:101CA000E552E552F70EDB5032E1FC0EDBCFE9FFE7
:101CB000FD0EDBCFEAFF1A0EE926000EEA22EF0640
:101CC000FC0EDBCFE9FFFD0EDBCFEAFF080EE926B5
:101CD000000EEA22EF501AE0FC0EDBCFE9FFFD0E0A
:101CE000DBCFEAFF080EE926000EEA22E9CF10F06A
:101CF000EACF11F010C0E6FF11C0E6FF66EC07F076
:101D0000E552E552010802E161EC16F036D0FC0E16
:101D1000DBCFE9FFFD0EDBCFEAFF060EE926000E62
:101D2000EA22040EDBCFEEFF050EDBCFEDFFFC0E4B
:101D3000DBCFE9FFFD0EDBCFEAFF110EE926000E37
:101D4000EA22EF501AE0FC0EDBCFE9FFFD0EDBCFFD
:101D5000EAFF110EE926000EEA22E9CF10F0EACFE1
:101D600011F010C0E6FF11C0E6FF66EC07F0E55287
:101D7000E552000902E061EC16F0E552E7BEF28E92
:101D8000010EC0D01DD0D950F80FE96EFF0EDA2039
:101D9000EA6EEE50ED1006E1E552E7BEF28E000E5F
:101DA000B1D00ED0DF500CE1D950010FE66E000E1D
:101DB000DA20E66E43EC08F0E552E552010EDF6EE4
:101DC000E552E7BEF28E21EC04F0F250E66EF29E90
:101DD000FC0EDBCFE9FFFD0EDBCFEAFF1D0EE9268F
:101DE000000EEA22EF50FF080BE1FC0EDBCFE9FF0B
:101DF000FD0EDBCFEAFF1D0EE926000EEA22EF6A98
:101E0000FC0EDBCFE9FFFD0EDBCFEAFF1E0EE9265D
:101E1000000EEA22EF50FF080BE1FC0EDBCFE9FFDA
:101E2000FD0EDBCFEAFF1E0EE926000EEA22EF6A66
:101E3000E552E7BEF28ED950F80FE66EFF0EDA20BB
:101E4000E66ED950010FE66E000EDA20E66E64EC05
:101E500008F0E552E552E552E552000945E1FC0E75
:101E6000DBCFE6FFFD0EDBCFE6FFD7DBE552E55229
:101E700000092EE0F80EDBCFE6FFF90EDBCFE6FF20
:101E8000FC0EDBCFE9FFFD0EDBCFEAFF110EE926EA
:101E9000000EEA22E9CF10F0EACF11F010C0E6FF01
:101EA00011C0E6FFD0EC06F0E552E552E552E552EE
:101EB000FC0EDBCFE6FFFD0EDBCFE6FFE8DAE552F6
:101EC000E55224EC04F0000902E161EC16F00BD0BD
:101ED000FC0EDBCFE6FFFD0EDBCFE6FFD8DAE552E6
:101EE000E55224EC04F00DD0FC0EDBCFE6FFFD0E36
:101EF000DBCFE6FFCCDAE552E55224EC04F0000E2D
:101F000001D09ED6106E060EE15C02E2E16AE55257
:101F1000E16E1050E552E5CFDAFFE7CFD9FF1200AE
:101F2000D9CFE6FFDACFE6FFE1CFD9FFE2CFDAFF84
:101F3000E652E652010EDB6AFC0EDBCFE9FFFD0E36
:101F4000DBCFEAFF1A0EE926000EEA22EF50000866
:101F500064E2FA0EDBCFE6FFFB0EDBCFE6FFFC0E02
:101F6000DBCFE6FFFD0EDBCFE6FFFAD9E552E55207
:101F7000E552E552FC0EDBCFE9FFFD0EDBCFEAFFB9
:101F80001A0EE926000EEA22EF06FC0EDBCFE9FF6F
:101F9000FD0EDBCFEAFF1D0EE926000EEA22EF5010
:101FA000FF082DE1FC0EDBCFE9FFFD0EDBCFEAFFE2
:101FB000080EE926000EEA22EF502CE0FC0EDBCFE3
:101FC000E9FFFD0EDBCFEAFF080EE926000EEA224C
:101FD000E9CF10F0EACF11F0E9CFE6FFEACFE6FF54
:101FE00066EC07F0E552E552000914E0F80EDBCF8D
:101FF000E9FFF90EDBCFEAFF010EEF6E0BD0FC0E0E
:10200000DBCFE9FFFD0EDBCFEAFF1D0EE926000E58
:10201000EA22EF2A010EDF6E01D0DF6ADF50E552BF
:10202000E552E552E5CFDAFFE7CFD9FF1200D9CF6D
:10203000E6FFDACFE6FFE1CFD9FFE2CFDAFFE652E3
:10204000F250E66EF29EFC0EDBCFE9FFFD0EDBCF19
:10205000EAFF1A0EE926000EEA22EFCFDFFFE55273
:10206000E7BEF28EDF5000D0E552E552E5CFDAFF51
:10207000E7CFD9FF1200D9CFE6FFDACFE6FFE1CFF5
:10208000D9FFE2CFDAFFE652FC0EDBCFE9FFFD0E0F
:10209000DBCFEAFF1A0EE926000EEA22EFCFDFFFC0
:1020A000DF50E552E552E5CFDAFFE7CFD9FF120066
:1020B000D9CFE6FFDACFE6FFE1CFD9FFE2CFDAFFF3
:1020C000FC0EDBCFE9FFFD0EDBCFEAFFEECFE6FF34
:1020D000EFCFE6FF9DEC21F0E552E552FC0EDBCFA1
:1020E000E6FFFD0EDBCFE6FF9DEC21F0E552E55269
:1020F000E552E5CFDAFFE7CFD9FF1200D9CFE6FFEF
:10210000DACFE6FFE1CFD9FFE2CFDAFFFC0EDBCF7B
:10211000E9FFFD0EDBCFEAFF1C0EE926000EEA22E6
:10212000EF5001E10CD1F90EDB5001E07AD0FC0E4A
:10213000DBCFE9FFFD0EDBCFEAFF1C0EE926000E28
:10214000EA22EF50E66EE66AFA0EDBCFE6FFFB0E00
:10215000DBCFE6FFFC0EDBCFE9FFFD0EDBCFEAFFB6
:10216000040EE926000EEA22EECFE6FFEFCFE6FFEF
:10217000D4EC20F0106E060EE15C02E2E16AE5525A
:10218000E16E1050FC0EDBCFE9FFFD0EDBCFEAFF66
:102190001C0EE926000EEA22EF50106E116AFC0EAA
:1021A000DBCFE9FFFD0EDBCFEAFF040EE926000ED0
:1021B000EA221050EE261150ED22FC0EDBCFE9FF93
:1021C000FD0EDBCFEAFF040EE926000EEA22EECF79
:1021D00010F0EFCF11F0FC0EDBCFE9FFFD0EDBCFEF
:1021E000EAFF020EE926000EEA22EECF12F0EFCF50
:1021F00013F01250105C1350115801E2A0D0FC0EE5
:10220000DBCFE9FFFD0EDBCFEAFFEECF10F0EFCF23
:1022100011F0FC0EDBCFE9FFFD0EDBCFEAFF040E71
:1022200087D0FC0EDBCFE9FFFD0EDBCFEAFF1C0EF3
:10223000E926000EEA22EF50E66EE66AFA0EDBCFE0
:10224000E6FFFB0EDBCFE6FFFC0EDBCFE9FFFD0E6A
:10225000DBCFEAFF060EE926000EEA22EECFE6FF0C
:10226000EFCFE6FFD4EC20F0106E060EE15C02E248
:10227000E16AE552E16E1050FC0EDBCFE9FFFD0E86
:10228000DBCFEAFF1C0EE926000EEA22EF50106EAB
:10229000116AFC0EDBCFE9FFFD0EDBCFEAFF060E75
:1022A000E926000EEA221050EE5E1150ED5AFC0EA7
:1022B000DBCFE9FFFD0EDBCFEAFF060EE926000EBD
:1022C000EA22EECF10F0EFCF11F0FC0EDBCFE9FFEA
:1022D000FD0EDBCFEAFFEECF12F0EFCF13F012507E
:1022E000105C135011582BE2FC0EDBCFE9FFFD0E02
:1022F000DBCFEAFF1C0EE926000EEA22EF50126E39
:10230000136AFC0EDBCFE9FFFD0EDBCFEAFF020E06
:10231000E926000EEA221250EE5C106E1350EE58C1
:10232000116EFC0EDBCFE9FFFD0EDBCFEAFF060EE0
:10233000E926000EEA2210C0EEFF11C0EDFFFC0EF0
:10234000DBCFE9FFFD0EDBCFEAFF1A0EE926000E18
:10235000EA22EF2AE552E5CFDAFFE7CFD9FF1200F4
:10236000D9CFE6FFDACFE6FFE1CFD9FFE2CFDAFF40
:10237000FC0EDBCFE9FFFD0EDBCFEAFFEE50ED10E8
:1023800001E17FD0FC0EDBCFE9FFFD0EDBCFEAFFE2
:102390001C0EE926000EEA22EF50106E116AFC0EA8
:1023A000DBCFE9FFFD0EDBCFEAFF060EE926000ECC
:1023B000EA221050EE261150ED22FC0EDBCFE9FF91
:1023C000FD0EDBCFEAFF060EE926000EEA22EECF75
:1023D00010F0EFCF11F0FC0EDBCFE9FFFD0EDBCFED
:1023E000EAFF020EE926000EEA22EECF12F0EFCF4E
:1023F00013F01250105C1350115818E3FC0EDBCF91
:10240000E9FFFD0EDBCFEAFFEECF10F0EFCF11F0CA
:10241000FC0EDBCFE9FFFD0EDBCFEAFF060EE9265F
:10242000000EEA2210C0EEFF11C0EDFFFC0EDBCF64
:10243000E9FFFD0EDBCFEAFF1C0EE926000EEA22C3
:10244000EF50E66EE66AFC0EDBCFE9FFFD0EDBCF58
:10245000EAFF060EE926000EEA22EECFE6FFEFCFF6
:10246000E6FFFA0EDBCFE6FFFB0EDBCFE6FFD4EC98
:1024700020F0106E060EE15C02E2E16AE552E16EC8
:102480001050E552E5CFDAFFE7CFD9FF1200D9CFE0
:10249000E6FFDACFE6FFE1CFD9FFE2CFDAFFF25075
:1024A000E66EF29EFC0EDBCFE9FFFD0EDBCFEAFF0E
:1024B0001E0EE926000EEA22EFCF10F0000EE76EA6
:1024C0001018E8AE02D0103403D0E750D880105472
:1024D00034E2FC0EDBCFE9FFFD0EDBCFEAFF110E8D
:1024E000E926000EEA22EF5026E0FC0EDBCFE9FFE2
:1024F000FD0EDBCFEAFF110EE926000EEA22E9CF3E
:1025000010F0EACF11F010C0E6FF11C0E6FF66EC54
:1025100007F0E552E552000902E0DCEC08F0FC0EA1
:10252000DBCFE9FFFD0EDBCFEAFF1E0EE926000E32
:10253000EA22EF0601D001D0B5D7FC0EDBCFE9FFD0
:10254000FD0EDBCFEAFF1E0EE926000EEA22EF6841
:10255000E552E7BEF28EF250E66EF29EFC0EDBCF45
:10256000E9FFFD0EDBCFEAFF1D0EE926000EEA2291
:10257000EFCF10F0000EE76E1018E8AE02D0103466
:1025800003D0E750D880105434E2FC0EDBCFE9FFD3
:10259000FD0EDBCFEAFF080EE926000EEA22EF501F
:1025A00026E0FC0EDBCFE9FFFD0EDBCFEAFF080ED5
:1025B000E926000EEA22E9CF10F0EACF11F010C0B0
:1025C000E6FF11C0E6FF66EC07F0E552E5520009B0
:1025D00002E0DCEC08F0FC0EDBCFE9FFFD0EDBCF08
:1025E000EAFF1D0EE926000EEA22EF0601D001D017
:1025F000B5D7FC0EDBCFE9FFFD0EDBCFEAFF1D0EEA
:10260000E926000EEA22EF68E552E7BEF28EE552B7
:10261000E5CFDAFFE7CFD9FF1200D9CFE6FFDACF57
:10262000E6FFE1CFD9FFE2CFDAFFE652F250E66EE5
:10263000F29EFC0EDBCFE9FFFD0EDBCFEAFF1A0EA8
:10264000E926000EEA22EF5002E0000E01D0010E52
:10265000DF6EE552E7BEF28EDF5000D0E552E55264
:10266000E5CFDAFFE7CFD9FF1200D9CFE6FFDACF07
:10267000E6FFE1CFD9FFE2CFDAFFE652FC0EDBCF77
:10268000E9FFFD0EDBCFEAFF1A0EE926000EEA2273
:10269000EF5002E0000E01D0010EDF6EDF50E55278
:1026A000E552E5CFDAFFE7CFD9FF1200D9CFE6FF39
:1026B000DACFE6FFE1CFD9FFE2CFDAFFE652F25000
:1026C000E66EF29EFC0EDBCFE9FFFD0EDBCFEAFFEC
:1026D0001A0EE926000EEA22EFCF10F0FC0EDBCF37
:1026E000E9FFFD0EDBCFEAFF1B0EE926000EEA2212
:1026F000EF50105C02E0000E01D0010EDF6EE552DB
:10270000E7BEF28EDF5000D0E552E552E5CFDAFFAA
:10271000E7CFD9FF1200D9CFE6FFDACFE6FFE1CF4E
:10272000D9FFE2CFDAFFE652FC0EDBCFE9FFFD0E68
:10273000DBCFEAFF1A0EE926000EEA22EFCF10F0F7
:10274000FC0EDBCFE9FFFD0EDBCFEAFF1B0EE92617
:10275000000EEA22EF50105C02E0000E01D0010EE4
:10276000DF6EDF50E552E552E5CFDAFFE7CFD9FF64
:02277000120055
:0E277200D9CFE6FFDACFE6FFE1CFD9FFE2CF05
:10278000DAFFE652E652E652E652E652FC0EDBCFA4
:10279000E9FFFD0EDBCFEAFF110EEF6EFC0EDB2A28
:1027A000FD0E01E3DB2AFC0EDBCFE9FFFD0EDBCFE4
:1027B000EAFF220EEF6EFC0EDB2AFD0E01E3DB2AA0
:1027C000FC0EDBCFE9FFFD0EDBCFEAFF330EEF6E31
:1027D000FC0EDB2AFD0E01E3DB2AF80EDBCF10F046
:1027E000F90EDBCF11F0000E10C0DFFF010E11C09B
:1027F000DBFF020EDB6A030EDB6AD9CFE9FFDACF1B
:10280000EAFFEECF10F0EECF11F0EECF12F0105045
:10281000E66EFC0EDBCFE9FFFD0EDBCFEAFFE552F3
:10282000E750EF6EFC0EDB2AFD0E01E3DB2AD9CF69
:10283000E9FFDACFEAFF080EE76ED890030EEB321D
:10284000020EEB32010EEB32EF32E706F6E1D9CFA2
:10285000E9FFDACFEAFFEECF10F0EECF11F0EECFC6
:1028600012F01050E66EFC0EDBCFE9FFFD0EDBCF61
:10287000EAFFE552E750EF6EFC0EDB2AFD0E01E3A6
:10288000DB2AFC0EDBCFE9FFFD0EDBCFEAFF440EB7
:10289000EF6EFC0EDB2AFD0E01E3DB2AFC0EDBCF24
:1028A000E9FFFD0EDBCFEAFF660EEF6EFC0EDB2AC2
:1028B000FD0E01E3DB2AFC0EDBCFE9FFFD0EDBCFD3
:1028C000EAFFCC0EEF6EFC0EDB2AFD0E01E3DB2AE5
:1028D000FC0EDBCFE9FFFD0EDBCFEAFFC00EEF6E93
:1028E000FC0EDB2AFD0E01E3DB2AFC0EDBCFE9FF49
:1028F000FD0EDBCFEAFF110EEF6EFC0EDB2AFD0EA4
:1029000001E3DB2AFC0EDBCFE9FFFD0EDBCFEAFFA4
:10291000220EEF6EFC0EDB2AFD0E01E3DB2AFC0E1D
:10292000DBCFE9FFFD0EDBCFEAFF330EEF6EFC0ECF
:10293000DB2AFD0E01E3DB2AFC0EDBCFE9FFFD0EF7
:10294000DBCFEAFF440EEF6EFC0EDB2AFD0E01E347
:10295000DB2AFC0EDBCFE9FFFD0EDBCFEAFF550ED5
:10296000EF6EFC0EDB2AFD0E01E3DB2AFC0EDBCF53
:10297000E9FFFD0EDBCFEAFF660EEF6EFC0EDB2AF1
:10298000FD0E01E3DB2AFC0EDBCFE9FFFD0EDBCF02
:10299000EAFFEF6AFC0EDB2AFD0E01E3DB2AFC0EE8
:1029A000DBCFE9FFFD0EDBCFEAFF880EEF6EFC0EFA
:1029B000DB2AFD0E01E3DB2AFC0EDBCFE9FFFD0E77
:1029C000DBCFEAFF990EEF6EFC0EDB2AFD0E01E372
:1029D000DB2AFC0EDBCFE9FFFD0EDBCFEAFFAA0E00
:1029E000EF6EFC0EDB2AFD0E01E3DB2AFC0EDBCFD3
:1029F000E9FFFD0EDBCFEAFFBB0EEF6EFC0EDB2A1C
:102A0000FD0E01E3DB2AFC0EDBCFE9FFFD0EDBCF81
:102A1000EAFFEF6AFC0EDB2AFD0E01E3DB2AFC0E67
:102A2000DBCFE9FFFD0EDBCFEAFFEF6AFC0EDB2A0E
:102A3000FD0E01E3DB2A040EDB6ADB50130815E30D
:102A4000FC0EDBCFE9FFFD0EDBCFEAFF040EDBCF90
:102A5000EFFFFC0EDBCFE9FFDB2AFD0EDBCFEAFF49
:102A600001E3DB2A040EDB2AE8D7FC0EDBCFE9FF0B
:102A7000FD0EDBCFEAFF130EEF6EFC0EDB2AFD0E20
:102A800001E3DB2AFC0EDBCFE9FFFD0EDBCFEAFF23
:102A9000EF6AFC0EDB2AFD0E01E3DB2AFA0EDBCF28
:102AA00010F0FB0EDBCF11F0000E10C0DFFF010EA7
:102AB00011C0DBFF020EDB6A030EDB6AD9CFE9FF30
:102AC000DACFEAFFEECF10F0EECF11F0EECF12F03A
:102AD0001050E66EFC0EDBCFE9FFFD0EDBCFEAFF08
:102AE000E552E750EF6EFC0EDB2AFD0E01E3DB2A18
:102AF000D9CFE9FFDACFEAFF080EE76ED890030ED0
:102B0000EB32020EEB32010EEB32EF32E706F6E16A
:102B1000D9CFE9FFDACFEAFFEECF10F0EECF11F018
:102B2000EECF12F01050E66EFC0EDBCFE9FFFD0E8B
:102B3000DBCFEAFFE552E750EF6EFC0EDB2AFD0E1D
:102B400001E3DB2AD9CFE9FFDACFEAFF080EE76E0F
:102B5000D890030EEB32020EEB32010EEB32EF3265
:102B6000E706F6E1D9CFE9FFDACFEAFFEECF10F0C2
:102B7000EECF11F0EECF12F01050E66EFC0EDBCF70
:102B8000E9FFFD0EDBCFEAFFE552E750EF6EFC0EEA
:102B9000DB2AFD0E01E3DB2AFC0EDBCFE9FFFD0E95
:102BA000DBCFEAFF010EEF6EFC0EDB2AFD0E01E328
:102BB000DB2AFC0EDBCF10F0FD0EDBCF11F010C0D6
:102BC000F3FF11C0F4FF050EE15C02E2E16AE55299
:102BD000E16EE552E5CFDAFFE7CFD9FF120028DA40
:102BE0002CC5E9FF2DC5EAFFEECFE1FFEECFE2FFF6
:102BF000E5CFE9FFE5CFE9FFFC6AE950FC5C08E2BC
:102C00000500E550FF6EE550FE6EE550FD6EF5D710
:102C1000E5CFEAFFE5CFE9FFE5CFEDFFE5CFEDFF3B
:102C2000E5CFEDFFE5CFEDFFE5CFEDFFE5CFEDFF24
:102C3000E5CFEDFFE5CFEDFFE5CFEDFFE5CFEDFF14
:102C4000E5CFEDFFE5CFEDFFE5CFEDFFE5CFEDFF04
:102C5000E5CFEDFFE5CFEDFFE5CFEDFFE5CFEDFFF4
:102C6000E5CFEDFFE5CFEFFFE5CFFAFFE5CFFBFFC7
:102C7000E5CFF3FFE5CFF4FFE5CFF6FFE5CFF7FFB4
:102C8000E5CFF8FFE5CFF5FFE5CFEAFFE5CFE9FFB8
:102C9000E5CFDAFFE5CFD9FFE5CFE0FFE5CFE8FFED
:102CA000E8AE06D0E5CFD8FFE5CFE8FF100005D0AD
:102CB000E5CFD8FFE5CFE8FF1200010E00D01200EB
:102CC0001200E8CFE4FFD8CFE4FFF2CFE8FF00091D
:102CD000E8CFE4FFF29EE0CFE4FFD9CFE4FFDACF04
:102CE000E4FFE9CFE4FFEACFE4FFF5CFE4FFF8CF5C
:102CF000E4FFF7CFE4FFF6CFE4FFF4CFE4FFF3CF38
:102D0000E4FFFBCFE4FFFACFE4FFE96AEA6AEECF23
:102D1000E4FFEECFE4FFEECFE4FFEECFE4FFEECF33
:102D2000E4FFEECFE4FFEECFE4FFEECFE4FFEECF23
:102D3000E4FFEECFE4FFEECFE4FFEECFE4FFEECF13
:102D4000E4FFEECFE4FFEECFE4FFEECFE4FFEECF03
:102D5000E4FFEECFE4FFEECFE4FFEFCFE4FFE9CFF7
:102D6000E4FFEACFE4FFFCCFE9FFFC50000808E2F3
:102D7000FDCFE4FFFECFE4FFFFCFE4FF0600F5D771
:102D8000E9CFE4FFE4522CC5E9FF2DC5EAFFE1CF0E
:102D9000EEFFE2CFEEFF3EEC06F02CC5E9FF2DC5BD
:102DA000EAFFEECFE1FFEECFE2FFE5CFE9FFE5CFAF
:102DB000E9FFFC6AE950FC5C08E20500E550FF6EA3
:102DC000E550FE6EE550FD6EF5D7E5CFEAFFE5CFA5
:102DD000E9FFE5CFEDFFE5CFEDFFE5CFEDFFE5CF77
:102DE000EDFFE5CFEDFFE5CFEDFFE5CFEDFFE5CF63
:102DF000EDFFE5CFEDFFE5CFEDFFE5CFEDFFE5CF53
:102E0000EDFFE5CFEDFFE5CFEDFFE5CFEDFFE5CF42
:102E1000EDFFE5CFEDFFE5CFEDFFE5CFEDFFE5CF32
:102E2000EFFFE5CFFAFFE5CFFBFFE5CFF3FFE5CFFF
:102E3000F4FFE5CFF6FFE5CFF7FFE5CFF8FFE5CFED
:102E4000F5FFE5CFEAFFE5CFE9FFE5CFDAFFE5CF14
:102E5000D9FFE5CFE0FFE5CFE8FFE8AE06D0E5CF4C
:102E6000D8FFE5CFE8FF100005D0E5CFD8FFE5CFCC
:102E7000E8FF12001200E8CFE4FFD8CFE4FFF2CF62
:102E8000E8FF8009E8CFE4FFF29EE0CFE4FFD9CF6E
:102E9000E4FFDACFE4FFE9CFE4FFEACFE4FFF5CFC8
:102EA000E4FFF8CFE4FFF7CFE4FFF6CFE4FFF4CF81
:102EB000E4FFF3CFE4FFFBCFE4FFFACFE4FFE96ADE
:102EC000EA6AEECFE4FFEECFE4FFEECFE4FFEECF11
:102ED000E4FFEECFE4FFEECFE4FFEECFE4FFEECF72
:102EE000E4FFEECFE4FFEECFE4FFEECFE4FFEECF62
:102EF000E4FFEECFE4FFEECFE4FFEECFE4FFEECF52
:102F0000E4FFEECFE4FFEECFE4FFEECFE4FFEFCF40
:102F1000E4FFE9CFE4FFEACFE4FFFCCFE9FFFC5098
:102F2000000808E2FDCFE4FFFECFE4FFFFCFE4FF9F
:102F30000600F5D7E9CFE4FFE4522CC5E9FF2DC523
:102F4000EAFFE1CFEEFFE2CFEEFF9E9442EC05F008
:102F50003EEC06F02CC5E9FF2DC5EAFFEECFE1FF00
:102F6000EECFE2FFE5CFE9FFE5CFE9FFFC6AE950EC
:102F7000FC5C08E20500E550FF6EE550FE6EE55092
:102F8000FD6EF5D7E5CFEAFFE5CFE9FFE5CFEDFF31
:102F9000E5CFEDFFE5CFEDFFE5CFEDFFE5CFEDFFB1
:102FA000E5CFEDFFE5CFEDFFE5CFEDFFE5CFEDFFA1
:102FB000E5CFEDFFE5CFEDFFE5CFEDFFE5CFEDFF91
:102FC000E5CFEDFFE5CFEDFFE5CFEDFFE5CFEDFF81
:102FD000E5CFEDFFE5CFEDFFE5CFEFFFE5CFFAFF62
:102FE000E5CFFBFFE5CFF3FFE5CFF4FFE5CFF6FF3D
:102FF000E5CFF7FFE5CFF8FFE5CFF5FFE5CFEAFF37
:10300000E5CFE9FFE5CFDAFFE5CFD9FFE5CFE0FF78
:10301000E5CFE8FFE8AE06D0E5CFD8FFE5CFE8FF83
:10302000100005D0E5CFD8FFE5CFE8FF1200120071
:10303000D9CFE6FFDACFE6FFE1CFD9FFE2CFDAFF63
:10304000090EE12402E3E168E652E16E880EDE6ECD
:10305000130EDE6EDE6ADD6ADD52DD52CF6ACE6AA5
:10306000D9CFE9FFDACFEAFF040EEECFDBFF050E82
:10307000EECFDBFF060EEECFDBFF070EEECFDBFF62
:10308000040EDBCF10F0050E060E070E1050BE6EBC
:10309000D950040FE96E000EDA20EA6E080EE76ED2
:1030A000D890030EEB32020EEB32010EEB32EF3210
:1030B000E706F6E1040EDBCF10F0050EDBCF11F0D2
:1030C000060EDBCF12F0070EDBCF13F01050BF6EF1
:1030D000BD80BD82BD94BD869D84F28C8D0EE66E52
:1030E00098EC22F0E552090EE15C02E2E16AE55259
:0E30F000E16EE552E5CFDAFFE7CFD9FF12001F
:0230FE00D9CF28
:10310000E6FFDACFE6FFE1CFD9FFE2CFDAFFFC0E30
:10311000DBCFE9FFFD0EDBCFEAFF030EE926000E51
:10312000EA22E9CF10F0EACF11F0FC0EDBCFE9FF85
:10313000FD0EDBCFEAFFEE5210C0EEFF11C0EDFF37
:10314000FC0EDBCFE9FFFD0EDBCFEAFF030EE92625
:10315000000EEA22EE68ED68FC0EDBCFE9FFFD0E03
:10316000DBCFEAFF030EE926000EEA22E9CF10F0DA
:10317000EACF11F0FC0EDBCFE9FFFD0EDBCFEAFF5B
:10318000030EE926000EEA22020EE926000EEA22CC
:1031900010C0EEFF11C0EDFFFC0EDBCFE9FFFD0E0E
:1031A000DBCFEAFF030EE926000EEA22E9CF10F09A
:1031B000EACF11F0FC0EDBCFE9FFFD0EDBCFEAFF1B
:1031C000030EE926000EEA22040EE926000EEA228A
:1031D00010C0EEFF11C0EDFFFC0EDBCFE9FFFD0ECE
:1031E000DBCFEAFFEF6AE552E5CFDAFFE7CFD9FFA1
:1031F0001200D9CFE6FFDACFE6FFE1CFD9FFE2CF69
:10320000DAFFFC0EDBCFE9FFFD0EDBCFEAFF080E95
:10321000EB6A090EEB6AE552E5CFDAFFE7CFD9FF9B
:103220001200D9CFE6FFDACFE6FFE1CFD9FFE2CF38
:10323000DAFFE652E652FC0EDBCFE9FFFD0EDBCFF4
:10324000EAFFEE52EECFDEFFEDCFDDFFDECFE9FF8E
:10325000DDCFEAFF020EE926000EEA22EECF10F0E3
:10326000EFCF11F0FA0EDBCFE9FFFB0EDBCFEAFF69
:10327000020EE926000EEA2210C0EEFF11C0EDFF9B
:10328000FC0EDBCFE9FFFD0EDBCFEAFFEE52EECF07
:1032900010F0EFCF11F0FA0EDBCFE9FFFB0EDBCF22
:1032A000EAFF040EE926000EEA2210C0EEFF11C06C
:1032B000EDFFDECFE9FFDDCFEAFF020EE926000ECB
:1032C000EA22EE50EFCFEAFFE96E040EE926000E87
:1032D000EA22FA0EDBCFEEFFFB0EDBCFEDFFDECFF7
:1032E000E9FFDDCFEAFF020EE926000EEA22FA0E20
:1032F000DBCFEEFFFB0EDBCFEDFFFC0EDBCFE9FFFC
:10330000FD0EDBCFEAFFEE52FA0EDBCFEEFFFB0E37
:10331000DBCFEDFFFA0EDBCFE9FFFB0EDBCFEAFFE1
:10332000080EE926000EEA22FC0EDBCFEEFFFD0EB2
:10333000DBCFEDFFFC0EDBCFE9FFFD0EDBCFEAFFBD
:10334000EF2AE552E552E552E5CFDAFFE7CFD9FFA4
:103350001200D9CFE6FFDACFE6FFE1CFD9FFE2CF07
:10336000DAFFE652E652E652E652FA0EDBCFE9FF0A
:10337000FB0EDBCFEAFF020EEECFDBFF030EEDCF3D
:10338000DBFFD950020FE96E000EDA20EA6EFF0E65
:10339000EE1816E1FF0EED1813E1FC0EDBCFE9FF8E
:1033A000FD0EDBCFEAFF030EE926000EEA22040E33
:1033B000E926000EEA22EECFDEFFEDCFDDFF36D0AC
:1033C000FC0EDBCFE9FFFD0EDBCFEAFF030EE926A3
:1033D000000EEA22E9CFDEFFEACFDDFFDECFE9FF14
:1033E000DDCFEAFF020EE926000EEA22EE50EFCF13
:1033F000EAFFE96EEECF10F0EFCF11F0020EDBCF57
:1034000012F0030EDBCF13F01050125C1150135862
:103410000DE3DECFE9FFDDCFEAFF020EE926000E65
:10342000EA22EECFDEFFEDCFDDFFD8D7DECFE9FF1A
:10343000DDCFEAFF020EE926000EEA22EECF10F001
:10344000EFCF11F0FA0EDBCFE9FFFB0EDBCFEAFF87
:10345000020EE926000EEA2210C0EEFF11C0EDFFB9
:10346000FA0EDBCFE9FFFB0EDBCFEAFF020EE92607
:10347000000EEA22EE50EFCFEAFFE96E040EE926D5
:10348000000EEA22FA0EDBCFEEFFFB0EDBCFEDFFE4
:10349000FA0EDBCFE9FFFB0EDBCFEAFF040EE926D5
:1034A000000EEA22DECFEEFFDDCFEDFFDECFE9FF3B
:1034B000DDCFEAFF020EE926000EEA22FA0EDBCF8C
:1034C000EEFFFB0EDBCFEDFFFA0EDBCFE9FFFB0ECD
:1034D000DBCFEAFF080EE926000EEA22FC0EDBCF66
:1034E000EEFFFD0EDBCFEDFFFC0EDBCFE9FFFD0EA7
:1034F000DBCFEAFFEF2A040EE15C02E2E16AE5526B
:10350000E16EE552E5CFDAFFE7CFD9FF1200D9CF60
:10351000E6FFDACFE6FFE1CFD9FFE2CFDAFFE652EE
:10352000E652FC0EDBCFE9FFFD0EDBCFEAFF040E17
:10353000E926000EEA22EECF10F0EFCF11F0FC0EDC
:10354000DBCFE9FFFD0EDBCFEAFF020EE926000E1E
:10355000EA22EE50EFCFEAFFE96E040EE926000EF4
:10356000EA2210C0EEFF11C0EDFFFC0EDBCFE9FF39
:10357000FD0EDBCFEAFF020EE926000EEA22EECFB7
:1035800010F0EFCF11F0FC0EDBCFE9FFFD0EDBCF2B
:10359000EAFF040EE926000EEA22EE50EFCFEAFF22
:1035A000E96E020EE926000EEA2210C0EEFF11C0FD
:1035B000EDFFFC0EDBCFE9FFFD0EDBCFEAFF080ECF
:1035C000E926000EEA22EECFDEFFEDCFDDFFDECFF3
:1035D000E9FFDDCFEAFFEE52EECF10F0EFCF11F0B2
:1035E000FC0EDB5010181BE1FD0EDB50111817E12B
:1035F000FC0EDBCFE9FFFD0EDBCFEAFF040EE92670
:10360000000EEA22EECF10F0EFCF11F0DECFE9FF8F
:10361000DDCFEAFFEE5210C0EEFF11C0EDFFFC0E51
:10362000DBCFE9FFFD0EDBCFEAFF080EEB6A090EE8
:10363000EB6ADECFE9FFDDCFEAFFEF06E552E552A8
:0C364000E552E5CFDAFFE7CFD9FF12001A
:04364C00D9CFE6FFED
:10365000DACFE6FFE1CFD9FFE2CFDAFFE652E6525A
:10366000E652E652106A2D0E116E310E126E010EE8
:10367000136E10C006F011C007F012C008F013C09E
:1036800009F0FA0EDBCF0BF0FB0EDBCF0CF0FC0EDB
:10369000DBCF0DF0FD0EDBCF0EF074EC22F006C098
:1036A000DEFF07C0DEFF08C0DEFF09C0DDFFDD5220
:1036B000DD52D9CFE9FFDACFEAFF040EE76ED890EA
:1036C000030EEB32020EEB32010EEB32EF32E70665
:1036D000F6E1D9CFE9FFDACFEAFFEE06000EEE5AA7
:1036E000000EEE5A000EEE5A010EE66EF90EDBCF1A
:1036F000E6FF22EC0BF0E552E552F3CF44F5F4CFB0
:1037000045F5010EE66EF90EDBCFE6FF22EC0BF07D
:10371000E552E552F3CF46F5F4CF47F5F250E66EA9
:10372000F29EAC6AAB6A000EDB50AF6E949C948E36
:103730009F989F9AAC84AC8AAB8EAB889D8AE552E9
:10374000E7BEF28EF36AF46A00D0040EE15C02E296
:10375000E16AE552E16EE552E5CFDAFFE7CFD9FF46
:103760001200D9CFE6FFDACFE6FFE552E5CFDAFF68
:10377000E7CFD9FF1200D9CFE6FFDACFE6FFE1CFDE
:10378000D9FFE2CFDAFFE66AF80EDBCFE6FFF90EEB
:10379000DBCFE6FFFA0EDBCFE6FFFB0EDBCFE6FF6B
:1037A00044C5E6FF45C5E6FF11EC0EF0106E070EAE
:1037B000E15C02E2E16AE552E16E1050000902E0CC
:1037C000010E01D0000EE552E5CFDAFFE7CFD9FFB9
:1037D0001200D9CFE6FFDACFE6FFE1CFD9FFE2CF83
:1037E000DAFFE66AF90EDBCFE6FFFA0EDBCFE6FF83
:1037F000D950FB0FE66EFF0EDA20E66E46C5E6FFF7
:1038000047C5E6FF43EC0CF0106E070EE15C02E2E8
:10381000E16AE552E16E1050010802E0000E02D0AC
:103820009D88010EE552E5CFDAFFE7CFD9FF120000
:10383000D9CFE6FFDACFE6FFE552E5CFDAFFE7CFF3
:10384000D9FF1200D8CFE4FFE0CFE4FFE46EE9CF68
:10385000E4FFEACFE4FFF6CFE4FFF7CFE4FFF5CFD4
:10386000E4FFF3CFE4FFF4CFE4FFFACFE4FF00EE90
:1038700000F0100EE80403E3EECFE4FFFBD700EE08
:1038800010F0060EE80403E3EECFE4FFFBD7E652A8
:10389000D9CFE6FFDACFE6FFE1CFD9FFE2CFDAFFFB
:1038A000E652E652010EDB6AAE50DF6EABA202D0EA
:1038B000AB98AB88E66AD950010FE66E000EDA20AD
:1038C000E66ED9CFE6FFDACFE6FF44C5E6FF45C591
:1038D000E6FF82EC0DF0176E070EE15C02E2E16A92
:1038E000E552E16E1750010EDB5002E061EC16F07C
:1038F000E552E552E552E5CFDAFFE7CFD9FFE552D1
:1039000000EE15F0060EE80403E3E5CFEDFFFBD76C
:1039100000EE0FF0100EE80403E3E5CFEDFFFBD758
:10392000E5CFFAFFE5CFF4FFE5CFF3FFE5CFF5FFF5
:10393000E5CFF7FFE5CFF6FFE5CFEAFFE5CFE9FFFB
:10394000E550E5CFE0FFE5CFD8FF1000D8CFE4FF8A
:10395000E0CFE4FFE46EE9CFE4FFEACFE4FFF6CF87
:10396000E4FFF7CFE4FFF5CFE4FFF3CFE4FFF4CFBC
:10397000E4FFFACFE4FF00EE00F0100EE80403E3EA
:10398000EECFE4FFFBD700EE10F0060EE80403E3F1
:10399000EECFE4FFFBD7E652D9CFE6FFDACFE6FF62
:1039A000E1CFD9FFE2CFDAFFE652E652010EDB6A41
:1039B000D950010FE66E000EDA20E66ED9CFE6FF91
:1039C000DACFE6FF46C5E6FF47C5E6FF90EC0FF00D
:1039D000166E060EE15C02E2E16AE552E16E1650F7
:1039E000010803E1DF50AD6E01D09D98E552E5522C
:1039F000E552E5CFDAFFE7CFD9FFE55200EE15F04B
:103A0000060EE80403E3E5CFEDFFFBD700EE0FF071
:103A1000100EE80403E3E5CFEDFFFBD7E5CFFAFF97
:103A2000E5CFF4FFE5CFF3FFE5CFF5FFE5CFF7FFF7
:103A3000E5CFF6FFE5CFEAFFE5CFE9FFE550E5CFBB
:083A4000E0FFE5CFD8FF100004
:083A4800D9CFE6FFDACFE6FF5B
:103A5000E1CFD9FFE2CFDAFF020EE66E0A0EE66E84
:103A600022EC0BF0E552E552F3CF48F5F4CF49F5DF
:103A7000000EE66EE66AE66EE66AE66EE66AFD0E41
:103A8000DBCFE6FF480EE66E050EE66E690EE66ECB
:103A9000E66A7F0EE66E450EE66EDA0EE66E3B0EC9
:103AA000E66E36EC00F0106E0F0EE15C02E2E16AA9
:103AB000E552E16E1050000EE66EE66AE66EE66ACA
:103AC000E66EE66AFD0EDBCFE6FF480EE66E050EFB
:103AD000E66E690EE66EE66A770EE66E450EE66EF7
:103AE000080EE66E3B0EE66E36EC00F0106E0F0E22
:103AF000E15C02E2E16AE552E16E1050E552E5CF89
:103B0000DAFFE7CFD9FF1200D9CFE6FFDACFE6FF21
:103B1000E1CFD9FFE2CFDAFFE652E652E652E652B3
:103B2000DE6ADD6A020EDB6A030EDB6A030EDBCFA0
:103B300010F0030EE76E1018E8AE02D0E73402D0A2
:103B4000E750105C36E2E66A000EE66EE66AD9CF10
:103B5000E6FFDACFE6FFFC0EDBCFE9FFFD0EDBCFA1
:103B6000EAFFEECFE6FFEFCFE6FF43EC0CF0106E7E
:103B7000070EE15C02E2E16AE552E16E10500108D5
:103B800006E0010EF36E020EF3CFDBFF0FD0020E44
:103B9000DB5008E1F250E66EF29E05014D2BE55236
:103BA000E7BEF28EDF2A010E01E3DB2A030EDB2AD9
:103BB000BDD7C80EE66EE66A50EC03F0E552E5525A
:103BC000B3D7040EE15C02E2E16AE552E16EE55230
:103BD000E5CFDAFFE7CFD9FF1200D9CFE6FFDACF82
:103BE000E6FFE1CFD9FFE2CFDAFFE652E652E65236
:103BF000E652E652020EDB6A030EDB6A040EDB6A53
:103C0000FC0EDBCFE9FFFD0EDBCFEAFFEECFE6FFD8
:103C1000EFCFE6FF17EC10F0E552E552000948E05F
:103C2000E66A000EE66EE66AD9CFE6FFDACFE6FF77
:103C3000FC0EDBCFE9FFFD0EDBCFEAFFEECFE6FFA8
:103C4000EFCFE6FF11EC0EF0106E070EE15C02E222
:103C5000E16AE552E16E1050010829E1020EDB50E5
:103C6000DF1804E1030EDB50DE52DD1810E0010E18
:103C7000F36E040EF3CFDBFFD9CFE9FFDACFEAFF13
:103C8000020EEECFDBFF030EEDCFDBFF0BD0040EF9
:103C9000DB5008E1F250E66EF29E05014C2BE55236
:103CA000E7BEF28E020EDB2A030E01E3DB2AA8D761
:103CB000B40EE66EE66A50EC03F0E552E552A0D78A
:103CC000050EE15C02E2E16AE552E16EE552E5CF04
:103CD000DAFFE7CFD9FF1200D9CFE6FFDACFE6FF50
:103CE000E1CFD9FFE2CFDAFFE65205014C5102E005
:103CF0004D5102E1DF6A02D0010EDF6E4C6B4D6B5D
:103D0000DF50E552E552E5CFDAFFE7CFD9FF1200E9
:103D1000D9CFE6FFDACFE6FFE1CFD9FFE2CFDAFF76
:103D2000E652E652DE6ADD6ADECF10F0DDCF11F03A
:103D3000D890115004E6010E105C000E115830E2CC
:103D4000000EE66EE66AE66EE66AE66EE66AFD0E6E
:103D5000DBCFE6FFDECF10F0DDCF11F04E0E1026E8
:103D6000050E112210C0E6FF11C0E6FF690EE66ED7
:103D7000E66A8D0EE66E450EE66EB00EE66E3D0E00
:103D8000E66E36EC00F0126E0F0EE15C02E2E16AC4
:103D9000E552E16E1250DF2A010EC6E3DB2AC4D7DA
:103DA000E552E552E552E5CFDAFFE7CFD9FF120041
:103DB000D9CFE6FFDACFE6FFE1CFD9FFE2CFDAFFD6
:103DC000080EE12402E3E168E652E16E040EDB6ACC
:103DD000050EDB6AFC0EDBCF08F0FD0EDBCF09F031
:103DE000060E08C0DBFF070E09C0DBFF7B0EDE6E90
:103DF000DE6ADE6ADD6ADD52DD52D9CFE9FFDACF55
:103E0000EAFF470EEE26940EEE22030EEE22000E7F
:103E1000EE22D9CFE9FFDACFEAFFFD0E0B6E0C6878
:103E20000D680E68EECF06F0EECF07F0EECF08F08B
:103E3000EFCF09F008EC22F005C0EDFF04C0EDFF64
:103E400003C0EDFF02C0EFFFD9CFE9FFDACFEAFFF1
:103E5000070E0B6E0C6A0D6A0E6AEECF06F0EECFFF
:103E600007F0EECF08F0EFCF09F040EC22F009C0E8
:103E7000EDFF08C0EDFF07C0EDFF06C0EFFFD9CF93
:103E8000E9FFDACFEAFF1B0EEE1808E1770EEE1815
:103E900005E1FE0EEE1802E1E868EE1807E0010EFB
:103EA000F36E040EF3CFDBFF050EDB6AD950040F6F
:103EB000E96E000EDA20EA6EEE50ED100EE1F250DF
:103EC000E66EF29E060EDBCFE9FF070EDBCFEAFFC0
:103ED000010EEF6EE552E7BEF28E88D7080EE15C68
:103EE00002E2E16AE552E16EE552E5CFDAFFE7CFA3
:103EF000D9FF1200D9CFE6FFDACFE6FFE1CFD9FF35
:103F0000E2CFDAFFE652E652E652010EDF6EDB6ADE
:103F1000020EDB6A010EDBCF10F0020EDBCF11F0D8
:103F2000D890115004E6010E105C000E11581EE2EC
:103F3000010EDBCFE9FF020EDBCFEAFF4E0EE926D2
:103F4000050EEA22EF5001E1DF6A010EDBCFE9FF47
:103F5000020EDBCFEAFF4E0EE926050EEA22EF6ADB
:103F6000010EDB2A020ED6E3DB2AD4D7DF50E5525E
:103F7000E552E552E552E5CFDAFFE7CFD9FF12006F
:103F800058EC20F0A7EC21F0050EE66E800EE66EF0
:103F9000250EE66EE66AE66A26EC1BF0106E050E4C
:103FA000E15C02E2E16AE552E16E1050000EE66E5D
:103FB000E66A580EE66E000EE66EE66AE9EC1BF065
:103FC000106E050EE15C02E2E16AE552E16E10500E
:103FD000E66A88EC1EF0E552020EE66E24EC1DF057
:103FE000E552000EE66EE66AE66EE66AE66EE66AA0
:103FF000030EE66E000EE66EE66A690EE66EE66A8F
:10400000870EE66E450EE66E280EE66E400EE66EF4
:1040100036EC00F0106E0F0EE15C02E2E16AE55250
:10402000E16E1050E2EF03F0D9CFE6FFDACFE6FF02
:10403000E1CFD9FFE2CFDAFFE652E652E652E80ED0
:10404000DE6E030EDD6EDECFE6FFDDCFE6FF50EC69
:1040500003F0E552E5520ED8E76E020EE7CFDBFF24
:10406000DB0403E1640EDE6EDD6AE66AB2EC20F08A
:10407000E552E9D7D9CFE6FFDACFE6FFE1CFD9FFA6
:10408000E2CFDAFFE652DF6A7AEC1FF0010802E0C5
:10409000010EDF6E6CEC1EF0010802E0010EDF6E17
:1040A000DF50E552E552E5CFDAFFE7CFD9FF120046
:1040B000959E959C959A9598839E839C839A8398C8
:1040C000070EC16E969484841200D9CFE6FFDACF32
:1040D000E6FFE1CFD9FFE2CFDAFF21EC04F0FD0EDD
:1040E000DB502DE0010A1EE0030A0FE0010A32E175
:1040F000FC0EDBCF10F0116A10BE11681050E8B052
:10410000838EE8B027D0839E25D0FC0EDBCF10F045
:10411000116A10BE11681050E8B0838CE8B01AD054
:10412000839C18D0FC0EDBCF10F0116A10BE116812
:104130001050E8B0838AE8B00DD0839A0BD0FC0E03
:10414000DBCF10F0116A10BE11681050E8B0838800
:10415000E8A0839824EC04F0E552E5CFDAFFE7CF3E
:10416000D9FF1200D9CFE6FFDACFE6FFE1CFD9FFC2
:10417000E2CFDAFF21EC04F0FD0EDB500CE0010A87
:1041800008E0030A04E0010A07E1837E05D0837C8E
:1041900003D0837A01D0837824EC04F0E552E5CF94
:0841A000DAFFE7CFD9FF12009E
:0841A800D9CFE6FFDACFE6FFF4
:1041B000FA0EE3CFD9FFFB0EE3CFDAFFFC0EE3CF1D
:1041C000E9FFFD0EE3CFEAFFE9CFF3FFEACFF4FF0B
:1041D000F80EE35003E1F90EE35008E0F80EE306B1
:1041E00002E2F90EE306DECFEEFFF2D7FF0EE3CFD9
:1041F000DAFFE552FF0EE3CFD9FFE5521200FE0EC3
:10420000E3CFE9FFFF0EE3CFEAFFE9CFF3FFEACF09
:10421000F4FFFB0EE35003E1FC0EE35009E0FB0E5C
:10422000E30602E2FC0EE306FD0EE350EE6EF1D76C
:104230001200D9CFE6FFDACFE6FFFA0EE3CFD9FFBF
:10424000FB0EE3CFDAFFFC0EE3CFE9FFFD0EE3CF79
:10425000EAFFE9CFF3FFEACFF4FFF80EE35003E102
:10426000F90EE3500BE0F80EE30602E2F90EE30666
:10427000DECFEFFFEE66F1D7DD52EFD7FF0EE3CFD3
:0E428000DAFFE552FF0EE3CFD9FFE552120040
:02428E00D9CF86
:10429000E6FFDACFE6FFE1CFD9FFE2CFDAFFE65261
:1042A000E652DE6ADD6A21EC04F0FC0EDB5005010B
:1042B0004A250001106EFD0EDB5005014B21000167
:1042C000116E000E105C040E115825E2FC0EDB503E
:1042D00005014A250001126EFD0EDB5005014B2140
:1042E0000001136E050112504A5D13504B5913E241
:1042F000E00E4A25106E000E4B21116E10C0DEFF3D
:10430000DD6EFC0EDBCF08F0FD0EDBCF09F00850B0
:104310004A2709504B2324EC04F0DECF10F0DDCF08
:1043200011F010C0F3FF11C0F4FFE552E552E55261
:10433000E5CFDAFFE7CFD9FF1200D9CFE6FFDACF1A
:10434000E6FFE552E5CFDAFFE7CFD9FF120005011E
:104350004A6B4B6B12004AC510F04BC511F0000EB2
:10436000D8801056040E115610C0F3FF11C0F4FF90
:02437000120039
:0E4372003A0EF66E000EF76E000EF86E0501A4
:104380000900F5503F6F0900F550406F03E13F67AA
:1043900001D03DD00900F5503A6F0900F5503B6F50
:1043A0000900F5503C6F09000900F550E96E09005D
:1043B000F550EA6E090009000900F5503D6F09004B
:1043C000F5503E6F09000900F6CF41F5F7CF42F5F1
:1043D000F8CF43F53AC5F6FF3BC5F7FF3CC5F8FFFC
:1043E00005013D5302E13E5307E00900F550EE6E32
:1043F0003D07F8E23E07F9D741C5F6FF42C5F7FF92
:1044000043C5F8FF05013F07000E405BBFD7120010
:1044100006500B02F3CF02F0F4CF03F00C02F3507E
:104420000326000EF420046E06500D02F3500426FD
:10443000000EF420056E06500E02F35005260750BC
:104440000B02F3500326F4500422000E05220750FD
:104450000C02F3500426F450052207500D02F350CD
:10446000052608500B02F3500426F450052208508C
:104470000C02F350052609500B02F35005261200DA
:10448000006AE86A0EAE4DEF22F00B6C0C1E0D1E9A
:104490000E1E0C220D220E22001E09AE58EF22F035
:1044A000066C071E081E091E072208220922001E8C
:1044B00074EC22F009BE6FEF22F000AE000C066C27
:1044C000071E081E091EE86A072208220922026C3C
:1044D000031E041E051E032204220522000C00BE3A
:0844E0005FEF22F00188FF0CE0
:0844E800056A046A036A026A16
:1044F000200EE76ED89006360736083609360236A3
:104500000336043605360B50025C0C5003580D5030
:1045100004580E50055809E30B50025E0C50035A24
:104520000D50045A0E50055A062AE72EE4D7120001
:10453000D9CFE6FFDACFE6FFE1CFD9FFE2CFDAFF4E
:10454000FD0EDB507E0BCD6EFD0EDBAC02D0CD8EB2
:1045500001D0CD9ECF6ACE6A9E90DBAE02D09D8008
:1045600001D09D90CD80E552E5CFDAFFE7CFD9FFAE
:02457000120037
:0E45720049444C45005150726F644E42005156
:10458000436F6E734E4200436865636B00496E74FF
:054590004D617468009C
:014595000025
:0A459600000EF36E00EE00F0060EBA
:1045A00001D81200EA6002D0EE6AFCD7F350E9604D
:0645B0001200EE6AFCD7C8
:0A45B60010EE80F020EE80F0F86AAD
:1045C000019CB9EC21F0E9EC22F0C0EC1FF0FBD724
:0245D0001200D7
:0245D2001200D5
:0C45D400000000000000000000000000DB
:0245E0000000D9
:0245E2000000D7
:0245E4000000D5
:00000001FF
